{
  "_format": "hh-sol-artifact-1",
  "contractName": "decentrapi",
  "sourceName": "contracts/Decentrapi.sol",
  "abi": [
    {
      "inputs": [
        {
          "internalType": "string",
          "name": "_serviceName",
          "type": "string"
        },
        {
          "internalType": "string",
          "name": "_serviceVersion",
          "type": "string"
        }
      ],
      "stateMutability": "nonpayable",
      "type": "constructor"
    },
    {
      "anonymous": false,
      "inputs": [
        {
          "indexed": true,
          "internalType": "address",
          "name": "sender",
          "type": "address"
        },
        {
          "indexed": false,
          "internalType": "string",
          "name": "nodeUrl",
          "type": "string"
        },
        {
          "indexed": false,
          "internalType": "uint256",
          "name": "nodePort",
          "type": "uint256"
        },
        {
          "indexed": false,
          "internalType": "uint256",
          "name": "nodeId",
          "type": "uint256"
        }
      ],
      "name": "NodeAdded",
      "type": "event"
    },
    {
      "anonymous": false,
      "inputs": [
        {
          "indexed": true,
          "internalType": "address",
          "name": "sender",
          "type": "address"
        },
        {
          "indexed": false,
          "internalType": "uint256",
          "name": "nodeId",
          "type": "uint256"
        }
      ],
      "name": "NodeRemoved",
      "type": "event"
    },
    {
      "anonymous": false,
      "inputs": [
        {
          "indexed": true,
          "internalType": "address",
          "name": "previousOwner",
          "type": "address"
        },
        {
          "indexed": true,
          "internalType": "address",
          "name": "newOwner",
          "type": "address"
        }
      ],
      "name": "OwnershipTransferred",
      "type": "event"
    },
    {
      "inputs": [
        {
          "internalType": "string",
          "name": "_url",
          "type": "string"
        },
        {
          "internalType": "uint256",
          "name": "_port",
          "type": "uint256"
        }
      ],
      "name": "addNode",
      "outputs": [
        {
          "internalType": "bool",
          "name": "success",
          "type": "bool"
        }
      ],
      "stateMutability": "nonpayable",
      "type": "function"
    },
    {
      "inputs": [
        {
          "internalType": "uint256",
          "name": "nodeId",
          "type": "uint256"
        }
      ],
      "name": "getNode",
      "outputs": [
        {
          "internalType": "string",
          "name": "nodeUrl",
          "type": "string"
        },
        {
          "internalType": "uint256",
          "name": "nodePort",
          "type": "uint256"
        }
      ],
      "stateMutability": "view",
      "type": "function"
    },
    {
      "inputs": [],
      "name": "getNodeAmount",
      "outputs": [
        {
          "internalType": "uint256",
          "name": "amount",
          "type": "uint256"
        }
      ],
      "stateMutability": "view",
      "type": "function"
    },
    {
      "inputs": [
        {
          "internalType": "bytes32",
          "name": "nodeUrlHash",
          "type": "bytes32"
        }
      ],
      "name": "getNodeId",
      "outputs": [
        {
          "internalType": "uint256",
          "name": "nodeId",
          "type": "uint256"
        }
      ],
      "stateMutability": "view",
      "type": "function"
    },
    {
      "inputs": [
        {
          "internalType": "uint256",
          "name": "nodeId",
          "type": "uint256"
        }
      ],
      "name": "getNodeUrlHash",
      "outputs": [
        {
          "internalType": "bytes32",
          "name": "hash",
          "type": "bytes32"
        }
      ],
      "stateMutability": "view",
      "type": "function"
    },
    {
      "inputs": [],
      "name": "getRandom",
      "outputs": [
        {
          "internalType": "bytes32",
          "name": "addr",
          "type": "bytes32"
        }
      ],
      "stateMutability": "view",
      "type": "function"
    },
    {
      "inputs": [
        {
          "internalType": "string",
          "name": "_url",
          "type": "string"
        },
        {
          "internalType": "uint256",
          "name": "_port",
          "type": "uint256"
        }
      ],
      "name": "isNode",
      "outputs": [
        {
          "internalType": "bool",
          "name": "",
          "type": "bool"
        }
      ],
      "stateMutability": "view",
      "type": "function"
    },
    {
      "inputs": [],
      "name": "owner",
      "outputs": [
        {
          "internalType": "address",
          "name": "",
          "type": "address"
        }
      ],
      "stateMutability": "view",
      "type": "function"
    },
    {
      "inputs": [
        {
          "internalType": "uint256",
          "name": "nodeId",
          "type": "uint256"
        }
      ],
      "name": "removeNode",
      "outputs": [
        {
          "internalType": "bool",
          "name": "success",
          "type": "bool"
        }
      ],
      "stateMutability": "nonpayable",
      "type": "function"
    },
    {
      "inputs": [],
      "name": "renounceOwnership",
      "outputs": [],
      "stateMutability": "nonpayable",
      "type": "function"
    },
    {
      "inputs": [],
      "name": "serviceName",
      "outputs": [
        {
          "internalType": "string",
          "name": "",
          "type": "string"
        }
      ],
      "stateMutability": "view",
      "type": "function"
    },
    {
      "inputs": [],
      "name": "serviceVersion",
      "outputs": [
        {
          "internalType": "string",
          "name": "",
          "type": "string"
        }
      ],
      "stateMutability": "view",
      "type": "function"
    },
    {
      "inputs": [
        {
          "internalType": "address",
          "name": "newOwner",
          "type": "address"
        }
      ],
      "name": "transferOwnership",
      "outputs": [],
      "stateMutability": "nonpayable",
      "type": "function"
    }
  ],
  "bytecode": "0x60806040523480156200001157600080fd5b50604051620021db380380620021db8339818101604052810190620000379190620003aa565b620000576200004b6200009160201b60201c565b6200009960201b60201c565b81600190805190602001906200006f9291906200015d565b508060029080519060200190620000889291906200015d565b50505062000494565b600033905090565b60008060009054906101000a900473ffffffffffffffffffffffffffffffffffffffff169050816000806101000a81548173ffffffffffffffffffffffffffffffffffffffff021916908373ffffffffffffffffffffffffffffffffffffffff1602179055508173ffffffffffffffffffffffffffffffffffffffff168173ffffffffffffffffffffffffffffffffffffffff167f8be0079c531659141344cd1fd0a4f28419497f9722a3daafe3b4186f6b6457e060405160405180910390a35050565b8280546200016b906200045e565b90600052602060002090601f0160209004810192826200018f5760008555620001db565b82601f10620001aa57805160ff1916838001178555620001db565b82800160010185558215620001db579182015b82811115620001da578251825591602001919060010190620001bd565b5b509050620001ea9190620001ee565b5090565b5b8082111562000209576000816000905550600101620001ef565b5090565b6000604051905090565b600080fd5b600080fd5b600080fd5b600080fd5b6000601f19601f8301169050919050565b7f4e487b7100000000000000000000000000000000000000000000000000000000600052604160045260246000fd5b62000276826200022b565b810181811067ffffffffffffffff821117156200029857620002976200023c565b5b80604052505050565b6000620002ad6200020d565b9050620002bb82826200026b565b919050565b600067ffffffffffffffff821115620002de57620002dd6200023c565b5b620002e9826200022b565b9050602081019050919050565b60005b8381101562000316578082015181840152602081019050620002f9565b8381111562000326576000848401525b50505050565b6000620003436200033d84620002c0565b620002a1565b90508281526020810184848401111562000362576200036162000226565b5b6200036f848285620002f6565b509392505050565b600082601f8301126200038f576200038e62000221565b5b8151620003a18482602086016200032c565b91505092915050565b60008060408385031215620003c457620003c362000217565b5b600083015167ffffffffffffffff811115620003e557620003e46200021c565b5b620003f38582860162000377565b925050602083015167ffffffffffffffff8111156200041757620004166200021c565b5b620004258582860162000377565b9150509250929050565b7f4e487b7100000000000000000000000000000000000000000000000000000000600052602260045260246000fd5b600060028204905060018216806200047757607f821691505b602082108114156200048e576200048d6200042f565b5b50919050565b611d3780620004a46000396000f3fe608060405234801561001057600080fd5b50600436106100cf5760003560e01c80639fdc7bc41161008c578063c62aa67d11610066578063c62aa67d14610217578063cb0c2ab014610247578063f2fde38b14610265578063ffd740df14610281576100cf565b80639fdc7bc4146101bd578063aacc5a17146101db578063bd4a53c8146101f9576100cf565b806302573d72146100d457806344be7f70146101045780634e8e89eb146101345780634f0f4aa914610164578063715018a6146101955780638da5cb5b1461019f575b600080fd5b6100ee60048036038101906100e99190611185565b6102b1565b6040516100fb91906111fc565b60405180910390f35b61011e60048036038101906101199190611185565b61040c565b60405161012b91906111fc565b60405180910390f35b61014e60048036038101906101499190611217565b610720565b60405161015b919061125d565b60405180910390f35b61017e60048036038101906101799190611217565b61078f565b60405161018c92919061130f565b60405180910390f35b61019d6108c0565b005b6101a7610948565b6040516101b49190611380565b60405180910390f35b6101c5610971565b6040516101d2919061139b565b60405180910390f35b6101e36109ff565b6040516101f0919061125d565b60405180910390f35b610201610a21565b60405161020e919061139b565b60405180910390f35b610231600480360381019061022c91906113e9565b610aaf565b60405161023e9190611416565b60405180910390f35b61024f610b34565b60405161025c9190611416565b60405180910390f35b61027f600480360381019061027a919061145d565b610b41565b005b61029b60048036038101906102969190611217565b610c39565b6040516102a891906111fc565b60405180910390f35b60006040516020016102c2906114bb565b60405160208183030381529060405280519060200120836040516020016102e99190611501565b604051602081830303815290604052805190602001201415610340576040517f08c379a000000000000000000000000000000000000000000000000000000000815260040161033790611564565b60405180910390fd5b6000821415610384576040517f08c379a000000000000000000000000000000000000000000000000000000000815260040161037b906115d0565b60405180910390fd5b600083833060405160200161039b93929190611659565b60405160208183030381529060405280519060200120905060006003600083815260200190815260200160002060000154905081600482815481106103e3576103e2611692565b5b906000526020600020015414156103ff57600192505050610406565b6000925050505b92915050565b6000610416610e86565b73ffffffffffffffffffffffffffffffffffffffff16610434610948565b73ffffffffffffffffffffffffffffffffffffffff161461048a576040517f08c379a00000000000000000000000000000000000000000000000000000000081526004016104819061170d565b60405180910390fd5b604051602001610499906114bb565b60405160208183030381529060405280519060200120836040516020016104c09190611501565b604051602081830303815290604052805190602001201415610517576040517f08c379a000000000000000000000000000000000000000000000000000000000815260040161050e90611779565b60405180910390fd5b600082141561055b576040517f08c379a0000000000000000000000000000000000000000000000000000000008152600401610552906117e5565b60405180910390fd5b600083833060405160200161057293929190611659565b6040516020818303038152906040528051906020012090508360405160200161059b9190611501565b60405160208183030381529060405280519060200120600360008381526020019081526020016000206002016040516020016105d791906118fa565b60405160208183030381529060405280519060200120141561062e576040517f08c379a00000000000000000000000000000000000000000000000000000000081526004016106259061195d565b60405180910390fd5b6000600480549050905080600360008481526020019081526020016000206000018190555083600360008481526020019081526020016000206001018190555084600360008481526020019081526020016000206002019080519060200190610698929190610f52565b5060048290806001815401808255809150506001900390600052602060002001600090919091909150553373ffffffffffffffffffffffffffffffffffffffff167fb0eec27b329c17953c461be65358eba3206a1d01bdf99dbfe1063732e189bfde86868460405161070c9392919061197d565b60405180910390a260019250505092915050565b60006004805490508210610769576040517f08c379a000000000000000000000000000000000000000000000000000000000815260040161076090611a2d565b60405180910390fd5b6004828154811061077d5761077c611692565b5b90600052602060002001549050919050565b6060600060048054905083106107da576040517f08c379a00000000000000000000000000000000000000000000000000000000081526004016107d190611a99565b60405180910390fd5b6000600484815481106107f0576107ef611692565b5b9060005260206000200154905060036000828152602001908152602001600020600201600360008381526020019081526020016000206001015481805461083690611834565b80601f016020809104026020016040519081016040528092919081815260200182805461086290611834565b80156108af5780601f10610884576101008083540402835291602001916108af565b820191906000526020600020905b81548152906001019060200180831161089257829003601f168201915b505050505091509250925050915091565b6108c8610e86565b73ffffffffffffffffffffffffffffffffffffffff166108e6610948565b73ffffffffffffffffffffffffffffffffffffffff161461093c576040517f08c379a00000000000000000000000000000000000000000000000000000000081526004016109339061170d565b60405180910390fd5b6109466000610e8e565b565b60008060009054906101000a900473ffffffffffffffffffffffffffffffffffffffff16905090565b6001805461097e90611834565b80601f01602080910402602001604051908101604052809291908181526020018280546109aa90611834565b80156109f75780601f106109cc576101008083540402835291602001916109f7565b820191906000526020600020905b8154815290600101906020018083116109da57829003601f168201915b505050505081565b60006040516000810160208160008060185afa610a1857fe5b81519250505090565b60028054610a2e90611834565b80601f0160208091040260200160405190810160405280929190818152602001828054610a5a90611834565b8015610aa75780601f10610a7c57610100808354040283529160200191610aa7565b820191906000526020600020905b815481529060010190602001808311610a8a57829003601f168201915b505050505081565b600080600360008481526020019081526020016000206000015490508260048281548110610ae057610adf611692565b5b906000526020600020015414610b2b576040517f08c379a0000000000000000000000000000000000000000000000000000000008152600401610b2290611b2b565b60405180910390fd5b80915050919050565b6000600480549050905090565b610b49610e86565b73ffffffffffffffffffffffffffffffffffffffff16610b67610948565b73ffffffffffffffffffffffffffffffffffffffff1614610bbd576040517f08c379a0000000000000000000000000000000000000000000000000000000008152600401610bb49061170d565b60405180910390fd5b600073ffffffffffffffffffffffffffffffffffffffff168173ffffffffffffffffffffffffffffffffffffffff161415610c2d576040517f08c379a0000000000000000000000000000000000000000000000000000000008152600401610c2490611bbd565b60405180910390fd5b610c3681610e8e565b50565b6000610c43610e86565b73ffffffffffffffffffffffffffffffffffffffff16610c61610948565b73ffffffffffffffffffffffffffffffffffffffff1614610cb7576040517f08c379a0000000000000000000000000000000000000000000000000000000008152600401610cae9061170d565b60405180910390fd5b6004805490508210610cfe576040517f08c379a0000000000000000000000000000000000000000000000000000000008152600401610cf590611c4f565b60405180910390fd5b600060048381548110610d1457610d13611692565b5b90600052602060002001549050600060046001600480549050610d379190611c9e565b81548110610d4857610d47611692565b5b906000526020600020015490508060048581548110610d6a57610d69611692565b5b90600052602060002001819055508360036000838152602001908152602001600020600001819055506004805480610da557610da4611cd2565b5b60019003818190600052602060002001600090559055600060036000848152602001908152602001600020600001819055506000600360008481526020019081526020016000206001018190555060405180602001604052806000815250600360008481526020019081526020016000206002019080519060200190610e2c929190610f52565b503373ffffffffffffffffffffffffffffffffffffffff167f0541da585fe0bf51f0c899a46d5b3c620bd36b5c810fb1b957be0de2c6ad595985604051610e739190611416565b60405180910390a2600192505050919050565b600033905090565b60008060009054906101000a900473ffffffffffffffffffffffffffffffffffffffff169050816000806101000a81548173ffffffffffffffffffffffffffffffffffffffff021916908373ffffffffffffffffffffffffffffffffffffffff1602179055508173ffffffffffffffffffffffffffffffffffffffff168173ffffffffffffffffffffffffffffffffffffffff167f8be0079c531659141344cd1fd0a4f28419497f9722a3daafe3b4186f6b6457e060405160405180910390a35050565b828054610f5e90611834565b90600052602060002090601f016020900481019282610f805760008555610fc7565b82601f10610f9957805160ff1916838001178555610fc7565b82800160010185558215610fc7579182015b82811115610fc6578251825591602001919060010190610fab565b5b509050610fd49190610fd8565b5090565b5b80821115610ff1576000816000905550600101610fd9565b5090565b6000604051905090565b600080fd5b600080fd5b600080fd5b600080fd5b6000601f19601f8301169050919050565b7f4e487b7100000000000000000000000000000000000000000000000000000000600052604160045260246000fd5b61105c82611013565b810181811067ffffffffffffffff8211171561107b5761107a611024565b5b80604052505050565b600061108e610ff5565b905061109a8282611053565b919050565b600067ffffffffffffffff8211156110ba576110b9611024565b5b6110c382611013565b9050602081019050919050565b82818337600083830152505050565b60006110f26110ed8461109f565b611084565b90508281526020810184848401111561110e5761110d61100e565b5b6111198482856110d0565b509392505050565b600082601f83011261113657611135611009565b5b81356111468482602086016110df565b91505092915050565b6000819050919050565b6111628161114f565b811461116d57600080fd5b50565b60008135905061117f81611159565b92915050565b6000806040838503121561119c5761119b610fff565b5b600083013567ffffffffffffffff8111156111ba576111b9611004565b5b6111c685828601611121565b92505060206111d785828601611170565b9150509250929050565b60008115159050919050565b6111f6816111e1565b82525050565b600060208201905061121160008301846111ed565b92915050565b60006020828403121561122d5761122c610fff565b5b600061123b84828501611170565b91505092915050565b6000819050919050565b61125781611244565b82525050565b6000602082019050611272600083018461124e565b92915050565b600081519050919050565b600082825260208201905092915050565b60005b838110156112b2578082015181840152602081019050611297565b838111156112c1576000848401525b50505050565b60006112d282611278565b6112dc8185611283565b93506112ec818560208601611294565b6112f581611013565b840191505092915050565b6113098161114f565b82525050565b6000604082019050818103600083015261132981856112c7565b90506113386020830184611300565b9392505050565b600073ffffffffffffffffffffffffffffffffffffffff82169050919050565b600061136a8261133f565b9050919050565b61137a8161135f565b82525050565b60006020820190506113956000830184611371565b92915050565b600060208201905081810360008301526113b581846112c7565b905092915050565b6113c681611244565b81146113d157600080fd5b50565b6000813590506113e3816113bd565b92915050565b6000602082840312156113ff576113fe610fff565b5b600061140d848285016113d4565b91505092915050565b600060208201905061142b6000830184611300565b92915050565b61143a8161135f565b811461144557600080fd5b50565b60008135905061145781611431565b92915050565b60006020828403121561147357611472610fff565b5b600061148184828501611448565b91505092915050565b600081905092915050565b50565b60006114a560008361148a565b91506114b082611495565b600082019050919050565b60006114c682611498565b9150819050919050565b60006114db82611278565b6114e5818561148a565b93506114f5818560208601611294565b80840191505092915050565b600061150d82846114d0565b915081905092915050565b7f69734e6f64653a2055726c206d7573742062652070726f766964656400000000600082015250565b600061154e601c83611283565b915061155982611518565b602082019050919050565b6000602082019050818103600083015261157d81611541565b9050919050565b7f69734e6f64653a20506f7274206d7573742062652070726f7669646564000000600082015250565b60006115ba601d83611283565b91506115c582611584565b602082019050919050565b600060208201905081810360008301526115e9816115ad565b9050919050565b6000819050919050565b61160b6116068261114f565b6115f0565b82525050565b60008160601b9050919050565b600061162982611611565b9050919050565b600061163b8261161e565b9050919050565b61165361164e8261135f565b611630565b82525050565b600061166582866114d0565b915061167182856115fa565b6020820191506116818284611642565b601482019150819050949350505050565b7f4e487b7100000000000000000000000000000000000000000000000000000000600052603260045260246000fd5b7f4f776e61626c653a2063616c6c6572206973206e6f7420746865206f776e6572600082015250565b60006116f7602083611283565b9150611702826116c1565b602082019050919050565b60006020820190508181036000830152611726816116ea565b9050919050565b7f6164644e6f64653a2055726c206d7573742062652070726f7669646564000000600082015250565b6000611763601d83611283565b915061176e8261172d565b602082019050919050565b6000602082019050818103600083015261179281611756565b9050919050565b7f6164644e6f64653a20506f7274206d7573742062652070726f76696465640000600082015250565b60006117cf601e83611283565b91506117da82611799565b602082019050919050565b600060208201905081810360008301526117fe816117c2565b9050919050565b7f4e487b7100000000000000000000000000000000000000000000000000000000600052602260045260246000fd5b6000600282049050600182168061184c57607f821691505b602082108114156118605761185f611805565b5b50919050565b60008190508160005260206000209050919050565b6000815461188881611834565b611892818661148a565b945060018216600081146118ad57600181146118be576118f1565b60ff198316865281860193506118f1565b6118c785611866565b60005b838110156118e9578154818901526001820191506020810190506118ca565b838801955050505b50505092915050565b6000611906828461187b565b915081905092915050565b7f6164644e6f64653a204e6f646520616c72656164792061646465640000000000600082015250565b6000611947601b83611283565b915061195282611911565b602082019050919050565b600060208201905081810360008301526119768161193a565b9050919050565b6000606082019050818103600083015261199781866112c7565b90506119a66020830185611300565b6119b36040830184611300565b949350505050565b7f6765744e6f646555726c486173683a206e6f6465496420646f6573206e6f742060008201527f6578697374000000000000000000000000000000000000000000000000000000602082015250565b6000611a17602583611283565b9150611a22826119bb565b604082019050919050565b60006020820190508181036000830152611a4681611a0a565b9050919050565b7f6765744e6f64653a206e6f6465496420646f6573206e6f742065786973740000600082015250565b6000611a83601e83611283565b9150611a8e82611a4d565b602082019050919050565b60006020820190508181036000830152611ab281611a76565b9050919050565b7f6765744e6f646549643a206e6f646555726c4861736820646f6573206e6f742060008201527f6578697374000000000000000000000000000000000000000000000000000000602082015250565b6000611b15602583611283565b9150611b2082611ab9565b604082019050919050565b60006020820190508181036000830152611b4481611b08565b9050919050565b7f4f776e61626c653a206e6577206f776e657220697320746865207a65726f206160008201527f6464726573730000000000000000000000000000000000000000000000000000602082015250565b6000611ba7602683611283565b9150611bb282611b4b565b604082019050919050565b60006020820190508181036000830152611bd681611b9a565b9050919050565b7f72656d6f76654e6f64653a206e6f6465496420646f6573206e6f74206578697360008201527f7400000000000000000000000000000000000000000000000000000000000000602082015250565b6000611c39602183611283565b9150611c4482611bdd565b604082019050919050565b60006020820190508181036000830152611c6881611c2c565b9050919050565b7f4e487b7100000000000000000000000000000000000000000000000000000000600052601160045260246000fd5b6000611ca98261114f565b9150611cb48361114f565b925082821015611cc757611cc6611c6f565b5b828203905092915050565b7f4e487b7100000000000000000000000000000000000000000000000000000000600052603160045260246000fdfea26469706673582212202d8dc0641a17bbc8483e1eca8baac984edf50fc21ed3903a931e6e65d87a491c64736f6c634300080c0033",
  "linkReferences": {},
  "deployedLinkReferences": {}
}