{
  "_format": "hh-sol-artifact-1",
  "contractName": "decentrapi",
  "sourceName": "contracts/Decentrapi.sol",
  "abi": [
    {
      "anonymous": false,
      "inputs": [
        {
          "indexed": true,
          "internalType": "address",
          "name": "sender",
          "type": "address"
        },
        {
          "indexed": false,
          "internalType": "string",
          "name": "nodeUrl",
          "type": "string"
        },
        {
          "indexed": false,
          "internalType": "uint256",
          "name": "nodePort",
          "type": "uint256"
        },
        {
          "indexed": false,
          "internalType": "uint256",
          "name": "nodeId",
          "type": "uint256"
        }
      ],
      "name": "NodeAdded",
      "type": "event"
    },
    {
      "anonymous": false,
      "inputs": [
        {
          "indexed": true,
          "internalType": "address",
          "name": "previousOwner",
          "type": "address"
        },
        {
          "indexed": true,
          "internalType": "address",
          "name": "newOwner",
          "type": "address"
        }
      ],
      "name": "OwnershipTransferred",
      "type": "event"
    },
    {
      "inputs": [
        {
          "internalType": "string",
          "name": "_url",
          "type": "string"
        },
        {
          "internalType": "uint256",
          "name": "_port",
          "type": "uint256"
        }
      ],
      "name": "addNode",
      "outputs": [
        {
          "internalType": "bool",
          "name": "success",
          "type": "bool"
        }
      ],
      "stateMutability": "nonpayable",
      "type": "function"
    },
    {
      "inputs": [
        {
          "internalType": "uint256",
          "name": "nodeId",
          "type": "uint256"
        }
      ],
      "name": "getNode",
      "outputs": [
        {
          "internalType": "string",
          "name": "nodeUrl",
          "type": "string"
        },
        {
          "internalType": "uint256",
          "name": "nodePort",
          "type": "uint256"
        }
      ],
      "stateMutability": "view",
      "type": "function"
    },
    {
      "inputs": [],
      "name": "getNodeAmount",
      "outputs": [
        {
          "internalType": "uint256",
          "name": "amount",
          "type": "uint256"
        }
      ],
      "stateMutability": "view",
      "type": "function"
    },
    {
      "inputs": [
        {
          "internalType": "bytes32",
          "name": "nodeUrlHash",
          "type": "bytes32"
        }
      ],
      "name": "getNodeId",
      "outputs": [
        {
          "internalType": "uint256",
          "name": "nodeId",
          "type": "uint256"
        }
      ],
      "stateMutability": "view",
      "type": "function"
    },
    {
      "inputs": [
        {
          "internalType": "uint256",
          "name": "nodeId",
          "type": "uint256"
        }
      ],
      "name": "getNodeUrlHash",
      "outputs": [
        {
          "internalType": "bytes32",
          "name": "hash",
          "type": "bytes32"
        }
      ],
      "stateMutability": "view",
      "type": "function"
    },
    {
      "inputs": [],
      "name": "getRandom",
      "outputs": [
        {
          "internalType": "bytes32",
          "name": "addr",
          "type": "bytes32"
        }
      ],
      "stateMutability": "view",
      "type": "function"
    },
    {
      "inputs": [
        {
          "internalType": "string",
          "name": "_url",
          "type": "string"
        },
        {
          "internalType": "uint256",
          "name": "_port",
          "type": "uint256"
        }
      ],
      "name": "isNode",
      "outputs": [
        {
          "internalType": "bool",
          "name": "",
          "type": "bool"
        }
      ],
      "stateMutability": "view",
      "type": "function"
    },
    {
      "inputs": [],
      "name": "owner",
      "outputs": [
        {
          "internalType": "address",
          "name": "",
          "type": "address"
        }
      ],
      "stateMutability": "view",
      "type": "function"
    },
    {
      "inputs": [],
      "name": "renounceOwnership",
      "outputs": [],
      "stateMutability": "nonpayable",
      "type": "function"
    },
    {
      "inputs": [],
      "name": "serviceName",
      "outputs": [
        {
          "internalType": "string",
          "name": "",
          "type": "string"
        }
      ],
      "stateMutability": "view",
      "type": "function"
    },
    {
      "inputs": [],
      "name": "serviceVersion",
      "outputs": [
        {
          "internalType": "string",
          "name": "",
          "type": "string"
        }
      ],
      "stateMutability": "view",
      "type": "function"
    },
    {
      "inputs": [
        {
          "internalType": "address",
          "name": "newOwner",
          "type": "address"
        }
      ],
      "name": "transferOwnership",
      "outputs": [],
      "stateMutability": "nonpayable",
      "type": "function"
    }
  ],
  "bytecode": "0x608060405234801561001057600080fd5b5061002d61002261003260201b60201c565b61003a60201b60201c565b6100fe565b600033905090565b60008060009054906101000a900473ffffffffffffffffffffffffffffffffffffffff169050816000806101000a81548173ffffffffffffffffffffffffffffffffffffffff021916908373ffffffffffffffffffffffffffffffffffffffff1602179055508173ffffffffffffffffffffffffffffffffffffffff168173ffffffffffffffffffffffffffffffffffffffff167f8be0079c531659141344cd1fd0a4f28419497f9722a3daafe3b4186f6b6457e060405160405180910390a35050565b6118738061010d6000396000f3fe608060405234801561001057600080fd5b50600436106100b45760003560e01c80639fdc7bc4116100715780639fdc7bc4146101a2578063aacc5a17146101c0578063bd4a53c8146101de578063c62aa67d146101fc578063cb0c2ab01461022c578063f2fde38b1461024a576100b4565b806302573d72146100b957806344be7f70146100e95780634e8e89eb146101195780634f0f4aa914610149578063715018a61461017a5780638da5cb5b14610184575b600080fd5b6100d360048036038101906100ce9190610e90565b610266565b6040516100e09190610f07565b60405180910390f35b61010360048036038101906100fe9190610e90565b610408565b6040516101109190610f07565b60405180910390f35b610133600480360381019061012e9190610f22565b610678565b6040516101409190610f68565b60405180910390f35b610163600480360381019061015e9190610f22565b6106e7565b60405161017192919061101a565b60405180910390f35b610182610818565b005b61018c6108a0565b604051610199919061108b565b60405180910390f35b6101aa6108c9565b6040516101b791906110a6565b60405180910390f35b6101c8610957565b6040516101d59190610f68565b60405180910390f35b6101e6610979565b6040516101f391906110a6565b60405180910390f35b610216600480360381019061021191906110f4565b610a07565b6040516102239190611121565b60405180910390f35b610234610a8c565b6040516102419190611121565b60405180910390f35b610264600480360381019061025f9190611168565b610a99565b005b600080600480549050116102af576040517f08c379a00000000000000000000000000000000000000000000000000000000081526004016102a6906111e1565b60405180910390fd5b6040516020016102be90611232565b60405160208183030381529060405280519060200120836040516020016102e59190611278565b60405160208183030381529060405280519060200120141561033c576040517f08c379a0000000000000000000000000000000000000000000000000000000008152600401610333906112db565b60405180910390fd5b6000821415610380576040517f08c379a000000000000000000000000000000000000000000000000000000000815260040161037790611347565b60405180910390fd5b6000838330604051602001610397939291906113d0565b60405160208183030381529060405280519060200120905060006003600083815260200190815260200160002060000154905081600482815481106103df576103de611409565b5b906000526020600020015414156103fb57600192505050610402565b6000925050505b92915050565b6000610412610b91565b73ffffffffffffffffffffffffffffffffffffffff166104306108a0565b73ffffffffffffffffffffffffffffffffffffffff1614610486576040517f08c379a000000000000000000000000000000000000000000000000000000000815260040161047d90611484565b60405180910390fd5b60405160200161049590611232565b60405160208183030381529060405280519060200120836040516020016104bc9190611278565b604051602081830303815290604052805190602001201415610513576040517f08c379a000000000000000000000000000000000000000000000000000000000815260040161050a906114f0565b60405180910390fd5b6000821415610557576040517f08c379a000000000000000000000000000000000000000000000000000000000815260040161054e9061155c565b60405180910390fd5b600083833060405160200161056e939291906113d0565b60405160208183030381529060405280519060200120905060006004805490509050806003600084815260200190815260200160002060000181905550836003600084815260200190815260200160002060010181905550846003600084815260200190815260200160002060020190805190602001906105f0929190610c5d565b5060048290806001815401808255809150506001900390600052602060002001600090919091909150553373ffffffffffffffffffffffffffffffffffffffff167fb0eec27b329c17953c461be65358eba3206a1d01bdf99dbfe1063732e189bfde8686846040516106649392919061157c565b60405180910390a260019250505092915050565b600060048054905082106106c1576040517f08c379a00000000000000000000000000000000000000000000000000000000081526004016106b89061162c565b60405180910390fd5b600482815481106106d5576106d4611409565b5b90600052602060002001549050919050565b606060006004805490508310610732576040517f08c379a000000000000000000000000000000000000000000000000000000000815260040161072990611698565b60405180910390fd5b60006004848154811061074857610747611409565b5b9060005260206000200154905060036000828152602001908152602001600020600201600360008381526020019081526020016000206001015481805461078e906116e7565b80601f01602080910402602001604051908101604052809291908181526020018280546107ba906116e7565b80156108075780601f106107dc57610100808354040283529160200191610807565b820191906000526020600020905b8154815290600101906020018083116107ea57829003601f168201915b505050505091509250925050915091565b610820610b91565b73ffffffffffffffffffffffffffffffffffffffff1661083e6108a0565b73ffffffffffffffffffffffffffffffffffffffff1614610894576040517f08c379a000000000000000000000000000000000000000000000000000000000815260040161088b90611484565b60405180910390fd5b61089e6000610b99565b565b60008060009054906101000a900473ffffffffffffffffffffffffffffffffffffffff16905090565b600180546108d6906116e7565b80601f0160208091040260200160405190810160405280929190818152602001828054610902906116e7565b801561094f5780601f106109245761010080835404028352916020019161094f565b820191906000526020600020905b81548152906001019060200180831161093257829003601f168201915b505050505081565b60006040516000810160208160008060185afa61097057fe5b81519250505090565b60028054610986906116e7565b80601f01602080910402602001604051908101604052809291908181526020018280546109b2906116e7565b80156109ff5780601f106109d4576101008083540402835291602001916109ff565b820191906000526020600020905b8154815290600101906020018083116109e257829003601f168201915b505050505081565b600080600360008481526020019081526020016000206000015490508260048281548110610a3857610a37611409565b5b906000526020600020015414610a83576040517f08c379a0000000000000000000000000000000000000000000000000000000008152600401610a7a9061178b565b60405180910390fd5b80915050919050565b6000600480549050905090565b610aa1610b91565b73ffffffffffffffffffffffffffffffffffffffff16610abf6108a0565b73ffffffffffffffffffffffffffffffffffffffff1614610b15576040517f08c379a0000000000000000000000000000000000000000000000000000000008152600401610b0c90611484565b60405180910390fd5b600073ffffffffffffffffffffffffffffffffffffffff168173ffffffffffffffffffffffffffffffffffffffff161415610b85576040517f08c379a0000000000000000000000000000000000000000000000000000000008152600401610b7c9061181d565b60405180910390fd5b610b8e81610b99565b50565b600033905090565b60008060009054906101000a900473ffffffffffffffffffffffffffffffffffffffff169050816000806101000a81548173ffffffffffffffffffffffffffffffffffffffff021916908373ffffffffffffffffffffffffffffffffffffffff1602179055508173ffffffffffffffffffffffffffffffffffffffff168173ffffffffffffffffffffffffffffffffffffffff167f8be0079c531659141344cd1fd0a4f28419497f9722a3daafe3b4186f6b6457e060405160405180910390a35050565b828054610c69906116e7565b90600052602060002090601f016020900481019282610c8b5760008555610cd2565b82601f10610ca457805160ff1916838001178555610cd2565b82800160010185558215610cd2579182015b82811115610cd1578251825591602001919060010190610cb6565b5b509050610cdf9190610ce3565b5090565b5b80821115610cfc576000816000905550600101610ce4565b5090565b6000604051905090565b600080fd5b600080fd5b600080fd5b600080fd5b6000601f19601f8301169050919050565b7f4e487b7100000000000000000000000000000000000000000000000000000000600052604160045260246000fd5b610d6782610d1e565b810181811067ffffffffffffffff82111715610d8657610d85610d2f565b5b80604052505050565b6000610d99610d00565b9050610da58282610d5e565b919050565b600067ffffffffffffffff821115610dc557610dc4610d2f565b5b610dce82610d1e565b9050602081019050919050565b82818337600083830152505050565b6000610dfd610df884610daa565b610d8f565b905082815260208101848484011115610e1957610e18610d19565b5b610e24848285610ddb565b509392505050565b600082601f830112610e4157610e40610d14565b5b8135610e51848260208601610dea565b91505092915050565b6000819050919050565b610e6d81610e5a565b8114610e7857600080fd5b50565b600081359050610e8a81610e64565b92915050565b60008060408385031215610ea757610ea6610d0a565b5b600083013567ffffffffffffffff811115610ec557610ec4610d0f565b5b610ed185828601610e2c565b9250506020610ee285828601610e7b565b9150509250929050565b60008115159050919050565b610f0181610eec565b82525050565b6000602082019050610f1c6000830184610ef8565b92915050565b600060208284031215610f3857610f37610d0a565b5b6000610f4684828501610e7b565b91505092915050565b6000819050919050565b610f6281610f4f565b82525050565b6000602082019050610f7d6000830184610f59565b92915050565b600081519050919050565b600082825260208201905092915050565b60005b83811015610fbd578082015181840152602081019050610fa2565b83811115610fcc576000848401525b50505050565b6000610fdd82610f83565b610fe78185610f8e565b9350610ff7818560208601610f9f565b61100081610d1e565b840191505092915050565b61101481610e5a565b82525050565b600060408201905081810360008301526110348185610fd2565b9050611043602083018461100b565b9392505050565b600073ffffffffffffffffffffffffffffffffffffffff82169050919050565b60006110758261104a565b9050919050565b6110858161106a565b82525050565b60006020820190506110a0600083018461107c565b92915050565b600060208201905081810360008301526110c08184610fd2565b905092915050565b6110d181610f4f565b81146110dc57600080fd5b50565b6000813590506110ee816110c8565b92915050565b60006020828403121561110a57611109610d0a565b5b6000611118848285016110df565b91505092915050565b6000602082019050611136600083018461100b565b92915050565b6111458161106a565b811461115057600080fd5b50565b6000813590506111628161113c565b92915050565b60006020828403121561117e5761117d610d0a565b5b600061118c84828501611153565b91505092915050565b7f69734e6f64653a20546865726520617265206e6f206e6f646573000000000000600082015250565b60006111cb601a83610f8e565b91506111d682611195565b602082019050919050565b600060208201905081810360008301526111fa816111be565b9050919050565b600081905092915050565b50565b600061121c600083611201565b91506112278261120c565b600082019050919050565b600061123d8261120f565b9150819050919050565b600061125282610f83565b61125c8185611201565b935061126c818560208601610f9f565b80840191505092915050565b60006112848284611247565b915081905092915050565b7f69734e6f64653a2055726c206d7573742062652070726f766964656400000000600082015250565b60006112c5601c83610f8e565b91506112d08261128f565b602082019050919050565b600060208201905081810360008301526112f4816112b8565b9050919050565b7f69734e6f64653a20506f7274206d7573742062652070726f7669646564000000600082015250565b6000611331601d83610f8e565b915061133c826112fb565b602082019050919050565b6000602082019050818103600083015261136081611324565b9050919050565b6000819050919050565b61138261137d82610e5a565b611367565b82525050565b60008160601b9050919050565b60006113a082611388565b9050919050565b60006113b282611395565b9050919050565b6113ca6113c58261106a565b6113a7565b82525050565b60006113dc8286611247565b91506113e88285611371565b6020820191506113f882846113b9565b601482019150819050949350505050565b7f4e487b7100000000000000000000000000000000000000000000000000000000600052603260045260246000fd5b7f4f776e61626c653a2063616c6c6572206973206e6f7420746865206f776e6572600082015250565b600061146e602083610f8e565b915061147982611438565b602082019050919050565b6000602082019050818103600083015261149d81611461565b9050919050565b7f6164644e6f64653a2055726c206d7573742062652070726f7669646564000000600082015250565b60006114da601d83610f8e565b91506114e5826114a4565b602082019050919050565b60006020820190508181036000830152611509816114cd565b9050919050565b7f6164644e6f64653a20506f7274206d7573742062652070726f76696465640000600082015250565b6000611546601e83610f8e565b915061155182611510565b602082019050919050565b6000602082019050818103600083015261157581611539565b9050919050565b600060608201905081810360008301526115968186610fd2565b90506115a5602083018561100b565b6115b2604083018461100b565b949350505050565b7f6765744e6f646555726c486173683a206e6f6465496420646f6573206e6f742060008201527f6578697374000000000000000000000000000000000000000000000000000000602082015250565b6000611616602583610f8e565b9150611621826115ba565b604082019050919050565b6000602082019050818103600083015261164581611609565b9050919050565b7f6765744e6f64653a206e6f6465496420646f6573206e6f742065786973740000600082015250565b6000611682601e83610f8e565b915061168d8261164c565b602082019050919050565b600060208201905081810360008301526116b181611675565b9050919050565b7f4e487b7100000000000000000000000000000000000000000000000000000000600052602260045260246000fd5b600060028204905060018216806116ff57607f821691505b60208210811415611713576117126116b8565b5b50919050565b7f6765744e6f646549643a206e6f646555726c4861736820646f6573206e6f742060008201527f6578697374000000000000000000000000000000000000000000000000000000602082015250565b6000611775602583610f8e565b915061178082611719565b604082019050919050565b600060208201905081810360008301526117a481611768565b9050919050565b7f4f776e61626c653a206e6577206f776e657220697320746865207a65726f206160008201527f6464726573730000000000000000000000000000000000000000000000000000602082015250565b6000611807602683610f8e565b9150611812826117ab565b604082019050919050565b60006020820190508181036000830152611836816117fa565b905091905056fea264697066735822122058b3c4b80ef95fcf47ccb0497cfc01d8296fd7d12932f154ddc8d61fec2321b864736f6c634300080c0033",
  "linkReferences": {},
  "deployedLinkReferences": {}
}